:100000000C94F0030C9418040C9418040C94180429
:100010000C9418040C9418040C9418040C941804F0
:100020000C9418040C9418040C94A1080C94100956
:100030000C9418040C9418040C9418040C941804D0
:100040000C9418040C9418040C9418040C941804C0
:100050000C9418040C9418040C9418040C94420B7F
:100060000C9418040C9418040C9418040C941804A0
:100070000C9418040C9418040C9418040C94180490
:100080000C9418040C9418040C9418040C94180480
:100090000C9418040C9418040C9418040C94180470
:1000A0000C9418040C9418040C9418041E212D9D13
:1000B0003E09BE003F259A001E21A1003F219E005F
:1000C0003F25A1003F0581001E2129983F04BF0064
:1000D000213FA10010209F003F04BB003F20A00053
:1000E0007FC2C4C23F0204BF1E21219E3F09860079
:1000F0001E2111AE3F09B60022259900013F810063
:100100001F20209F0F308F007FD0C8D03B04BB0042
:1001100007388700312925A33F21A100030CB00037
:100120002121BF00020182002020A00080000000E9
:10013000AF0000000300830052BF127F5255BF156D
:10014000310CA3001E2516A8830000001EA100008C
:10015000219E0000140E9400040E840020900000E4
:1001600004048400A0000000300C83001E219E00C7
:10017000BF0000003229A60021259A000F083F8801
:10018000272599001E259800013987001A259A0015
:1001900006299E0094000000209400000814A2008C
:1001A0001414940022148800012986000000000025
:1001B000003E5B4F5B3E3E6B4F6B3E1C3E7C3E1CED
:1001C000183C7E3C181C577D571C1C5E7F5E1C0033
:1001D000183C1800FFE7C3E7FF0018241800FFE7EA
:1001E000DBE7FF30483A060E2629792926407F05AD
:1001F0000507407F05253F5A3CE73C5A7F3E1C1CC3
:1002000008081C1C3E7F14227F22145F5F005F5F82
:1002100006097F017F006689956A6060606060946E
:10022000A2FFA29408047E040810207E2010080873
:100230002A1C08081C2A08081E101010100C1E0C7E
:100240001E0C30383E3830060E3E0E060000000010
:100250000000005F00000007000700147F147F14F7
:10026000242A7F2A1223130864623649562050003C
:1002700008070300001C2241000041221C002A1C28
:100280007F1C2A08083E0808008070300008080813
:100290000808000060600020100804023E51494533
:1002A0003E00427F400072494949462141494D3351
:1002B0001814127F1027454545393C4A49493141B8
:1002C000211109073649494936464949291E000086
:1002D00014000000403400000008142241141414DB
:1002E0001414004122140802015909063E415D59C7
:1002F0004E7C1211127C7F494949363E41414122D0
:100300007F4141413E7F494949417F090909013EF9
:10031000414151737F0808087F00417F4100204020
:10032000413F017F081422417F404040407F021C32
:10033000027F7F0408107F3E4141413E7F09090949
:10034000063E4151215E7F09192946264949493215
:1003500003017F01033F4040403F1F2040201F3FDB
:100360004038403F63140814630304780403615960
:10037000494D43007F4141410204081020004141A2
:10038000417F04020102044040404040000307084E
:100390000020545478407F2844443838444444284A
:1003A000384444287F385454541800087E090218F1
:1003B000A4A49C787F0804047800447D4000204079
:1003C000403D007F1028440000417F40007C0478BD
:1003D00004787C080404783844444438FC18242405
:1003E0001818242418FC7C08040408485454542485
:1003F00004043F44243C4040207C1C2040201C3C02
:100400004030403C44281028444C9090907C4464F8
:10041000544C44000836410000007700000041368B
:10042000080002010204023C2623263C1EA1A16111
:10043000123A4040207A3854545559215555794143
:100440002154547841215554784020545579400C1A
:100450001E527212395555555939545454593955FB
:100460005454580000457C410002457D420001453E
:100470007C40F0292429F0F0282528F07C545545AB
:10048000002054547C547C0A097F4932494949323E
:100490003248484832324A4848303A4141217A3A53
:1004A00042402078009DA0A07D39444444393D401D
:1004B00040403D3C24FF2424487E4943662B2FFCCA
:1004C0002F2BFF0929F620C0887E09032054547978
:1004D000410000447D413048484A32384040227A49
:1004E000007A0A0A727D0D19317D2629292F2826C6
:1004F0002929292630484D402038080808080808CE
:100500000808382F10C8ACBA2F102834FA00007B26
:10051000000008142A142222142A1408950022002C
:1005200095AA005500AAAA55AA55AA000000FF00E6
:10053000101010FF00141414FF001010FF00FF1023
:1005400010F010F0141414FC001414F700FF000055
:10055000FF00FF1414F404FC141417101F10101FD4
:10056000101F1414141F00101010F0000000001FC2
:10057000101010101F10101010F010000000FF10CD
:100580001010101010101010FF10000000FF1400C9
:1005900000FF00FF00001F10170000FC04F41414FB
:1005A0001710171414F404F40000FF00F7141414C7
:1005B00014141414F700F7141414171410101F1047
:1005C0001F141414F4141010F010F000001F101F6A
:1005D0000000001F14000000FC140000F010F010D8
:1005E00010FF10FF141414FF141010101F0000004F
:1005F00000F010FFFFFFFFFFF0F0F0F0F0FFFFFF53
:100600000000000000FFFF0F0F0F0F0F38444438A9
:10061000447C2A2A3E147E02020606027E027E02E4
:1006200063554941633844443C04407E201E200603
:10063000027E020299A5E7A5991C2A492A1C4C7240
:1006400001724C304A4D4D303048784830BC625AC7
:10065000463D3E494949007E0101017E2A2A2A2A57
:100660002A44445F444440514A444040444A514033
:100670000000FF0103E080FF000008086B6B0836F4
:1006800012362436060F090F060000181800000065
:100690001010003040FF0101001F01011E00191D54
:1006A0001712003C3C3C3C0000000000F0F89C8E1F
:1006B0008783878E9CF8F00000FEFF03030303038B
:1006C000070EFCF80000FEFF0303030303070EFC04
:1006D000F80000FFFF00000000000000FFFF000026
:1006E000FEFF8383838383C7EE7C380000F8FC0E13
:1006F00007030303070EFCF800003F7FE0C0808083
:10070000C0E07F3FFFFF01010101010101FFFF0088
:1007100000FFFF0C0C0C0C1C3E77E3C100007FFFB8
:10072000C0C0C0C0C0E0703F1F00001F3F70E0C0ED
:10073000C0C0E0703F1F00007FFFC1C1C1C1C1E365
:10074000773E1C00001F3F70E0C0C0C0E0703F1F3C
:10075000000000000001FFFF01000000D5F08D1433
:10076000A1C881CFD9F1AF2000080B00020202011D
:100770000009040000010202000005240010010528
:100780002401010104240206052406000107058155
:100790000310004009040100020A000000070502DE
:1007A0000240000007058302400000040309041210
:1007B000010002EF020140412336800001010203E3
:1007C0000141726475696E6F204C4C430041726444
:1007D00075696E6F204C656F6E6172646F00040CFA
:1007E00011241FBECFEFDAE0DEBFCDBF11E0A0E0E5
:1007F000B1E0E0E4FEE102C005900D92AA3DB10730
:10080000D9F726E0AAEDB1E001C01D92AA36B207E1
:10081000E1F713E0C0EFD3E004C02197FE010E948E
:10082000130FCF3ED107C9F70E94440C0C941E0F42
:100830000C940000E9EFF1E0A0E0B8E000800EBC0D
:100840008111012C1197A0FDFDCF0192B9F70DB4D4
:100850000895FC018091F801882311F13FB7F894C5
:1008600082E08093E9002091F200822F90E0181638
:10087000190614F481E090E0882339F0289844E6C2
:100880004093F7014091F1004083222339F02091F9
:10089000F200211103C02BE62093E8003FBF08952A
:1008A0008FEF9FEF08952FB7F89483E08093E900CE
:1008B0009091E800892F807295FF04C09091F2001A
:1008C00080E4891B2FBF08958091EF0181110DC035
:1008D00082E08093EB0184E08093EC011092EE01C2
:1008E0001092ED0181E08093EF018BEE91E008958D
:1008F000CF93DF931F92CDB7DEB76983DC01ED9113
:10090000FC910280F381E02D41E050E0BE016F5F79
:100910007F4F09950F90DF91CF91089583E08093E9
:10092000E9008091F200882319F08AE38093E800BF
:1009300008950E94530490E00895CF93DF931F928F
:10094000CDB7DEB7FC018485958597FD08C02FEFF4
:100950003FEF358724870F90DF91CF910895CE0127
:1009600001960E942904019719F4898190E0F3CF40
:100970008FEF9FEFF0CF0F931F93CF93DF931F92D3
:10098000CDB7DEB78C01FC018485958597FF0BC040
:10099000CE0101960E942904019771F4898190E0AB
:1009A000F80195878487F801848595850F90DF91FC
:1009B000CF911F910F9108958FEF9FEFF1CFFC0121
:1009C0008485958597FD0BC09FB7F89482E080934E
:1009D000E9008091F2009FBF90E0019608959FB7D3
:1009E000F89482E08093E9008091F2009FBF90E04C
:1009F00008954091E5015091E6012091E301309185
:100A0000E40142175307B4F49091E8009570E1F3C4
:100A10009091E80092FD19C08093F1008091E5016A
:100A20009091E60101968F739927892B19F48EEF27
:100A30008093E8008091E5019091E6010196909302
:100A4000E6018093E50181E0089580E00895DF925A
:100A5000EF92FF920F931F93CF93DF93D82E8A01CB
:100A6000EB017B01E40EF51ECE15DF0559F0D7FE34
:100A700012C0FE0184910E94F90421968111F4CFE5
:100A80000FEF1FEFC801DF91CF911F910F91FF90E2
:100A9000EF90DF9008958881EECF0F931F93CF934F
:100AA000DF931F92CDB7DEB782E0898342E450E046
:100AB00069E677E080E80E9427050E946404DC0173
:100AC00012960D911C910115110589F0D801ED9137
:100AD000FC910280F381E02DBE016F5F7F4FC80162
:100AE000099597FD04C0F80100851185ECCF898137
:100AF0000F90DF91CF911F910F910895615030F0C9
:100B00002091F100FC0120830196F8CF289884E61B
:100B10008093F7010895AF92BF92CF92DF92EF9248
:100B2000FF920F931F93CF93DF936C017B018B0197
:100B3000040F151FEB015E01AE18BF08C017D107E7
:100B400059F06991D601ED91FC910190F081E02D71
:100B5000C6010995892B79F7C501DF91CF911F91C6
:100B60000F91FF90EF90DF90CF90BF90AF900895DE
:100B70003FB7F8948091DB019091DC01A091DD01F9
:100B8000B091DE0126B5A89B05C02F3F19F0019654
:100B9000A11DB11D3FBFBA2FA92F982F8827BC01D7
:100BA000CD01620F711D811D911D42E0660F771FFF
:100BB000881F991F4A95D1F708958F929F92AF92FF
:100BC000BF92CF92DF92EF92FF926B017C010E9465
:100BD000B8054B015C01C114D104E104F104B9F082
:100BE0000E94B805681979098A099B09683E734013
:100BF0008105910580F321E0C21AD108E108F108CE
:100C000088EE880E83E0981EA11CB11CE4CFFF90F3
:100C1000EF90DF90CF90BF90AF909F908F9008950E
:100C20008F929F92AF92BF92CF92DF92EF92FF92FC
:100C30000F931F93CF93DF936C017B018A01809107
:100C40000B01882309F45CC08091F801882309F422
:100C500057C08091EA0180FF05C08091E00082606A
:100C60008093E000E801B12C8AEFA82E93E0892E52
:100C70002AE3922E209711F4BB20D9F10E9453044D
:100C800081110AC0AA94AA20D9F161E070E080E045
:100C900090E00E94DD05EECF8C171D0611F00CF0E0
:100CA0008C2F9FB7F8948092E9002091E80025FDF1
:100CB00002C09FBFDFCF282F30E0C21BD30BF7014C
:100CC000815020F041914093F100FACFE20EF31EE3
:100CD000BB2021F09092E800B12CEBCF8091E8008E
:100CE00085FDE7CF9092E800BB24B394209709F3E9
:100CF000F3CF5D9884E68093E901101611063CF06D
:100D000081E090E0F6019383828310E000E0C80167
:100D1000DF91CF911F910F91FF90EF90DF90CF90D7
:100D2000BF90AF909F908F9008952D9A0895BC0129
:100D300090E080E00C94DD058FB18095807F669B0C
:100D400088601C9B8460089520E191E061FD94E03F
:100D500060FD990F62FD9295687F269FD001112456
:100D6000A80FA750BE4F8C9140FF03C0892B8C93D6
:100D7000089590958923FBCF2F923F924F925F92D7
:100D80006F927F928F929F92AF92BF92CF92DF929B
:100D9000EF92FF920F931F93CF93DF93CDB7DEB700
:100DA00028970FB6F894DEBF0FBECDBF9E838D830C
:100DB0006A3061F5DC0155968C91B8E08B9F90010B
:100DC0001124ED81FE8181899289820F931F928B7C
:100DD000818B108A178681E090E028960FB6F894F0
:100DE000DEBF0FBECDBFDF91CF911F910F91FF905E
:100DF000EF90DF90CF90BF90AF909F908F907F90BB
:100E00006F905F904F903F902F9008956D3019F341
:100E10002D813E8138872F83D9011F960D911C911A
:100E20005097003811050CF07CC05196AD90BC90E5
:100E3000B0E4AB16B1040CF074C0F901258825E0CC
:100E4000C801229E800D911D1124181619060CF060
:100E500068C0622C712CC30133E0880F991F3A954A
:100E6000E1F78A0D9B1D181619060CF05AC0F4897B
:100E7000FB83AF81B8855396BC91BC83629FB00160
:100E80001124FB01E455FE4F2F011982F2018491D8
:100E9000F981F53009F480E0450128E02A83A82F84
:100EA000B0E0BE83AD833C8080FF3B80311004C046
:100EB000BB81EC81BE17F9F078018E2D801B821565
:100EC000D0F4D12CC12CC21490F4F0E8EF16F10448
:100ED00050F4B601680D791D6034710520F4432D7E
:100EE000C7010E94A4062FEFC21AD20AECCF3FEF2F
:100EF000E31AF30AE2CF8D819E81959587959A81B9
:100F000091509A83860C971C9111C9CFA981AF5F2C
:100F1000A983BFEF4B1A5B0A060D171DA63009F017
:100F2000B5CFEF81F8852589422F50E087859089DC
:100F3000F6E02F9F800D911D1124AF81B88550964A
:100F40009C938E931F9756962C915697222309F4C3
:100F500042CF6AEF64039001659F300D1124205841
:100F60003F4F281739070CF036CFED91FC911197C0
:100F70000190F081E02D6AE0CD0109952CCF089514
:100F80009F92AF92BF92CF92DF92EF92FF920F9318
:100F90001F93CF93DF93DC0115962C9115976A3040
:100FA000D1F419968C91199714968C9314971796DF
:100FB0008C911797280F15962C9381E090E0DF9184
:100FC000CF911F910F91FF90EF90DF90CF90BF9046
:100FD000AF909F90089514967C911497862F062EBB
:100FE000000C990B4FE350E0603614F04FE150E0F5
:100FF0008423880F880F122F1770022E000C330BDA
:1010000093E0359527959A95E1F73695322F22276B
:1010100037952795270F311D77FD3A95E901C75080
:10102000DE4F00E0912C90E06CEA70E0621B730BE5
:10103000680F711D48E050E07A01E11AF108C92CEF
:10104000D12CD594C794D594C7944C2D943079F075
:10105000FB01E20FF31FA4904A2D4F73FA2DF07C91
:101060009F2E9C28911103C0A6FA002700F9211594
:1010700084E0380778F4C42E012E01C0CC0C0A9409
:10108000EAF7888116965C9116975523A9F1C094CA
:101090008C2188831230E8F06901E0E8CE0ED11C83
:1010A000C114F4E0DF06A8F450E00E2C02C0559500
:1010B00047950A94E2F76E0180E8C80ED11CF6014C
:1010C00080811696BC901697BB20C9F0409584236A
:1010D0008083011117C0A7FE15C0292F30E02F5FB4
:1010E0003F4F14968C91149718969C911897890FDE
:1010F000820F14968C9361CFC82AC882CBCF482B1D
:101100004083E7CF2F5F3F4F9F5F2196953009F0D7
:1011100096CF25E030E0E5CF089590E080E0089597
:10112000FC0101900020E9F73197AF01481B590BF2
:10113000BC0189E496E00C948B050C94FD0E0E9492
:10114000190F1F920F920FB60F9211248F939F9336
:101150008091E1009091E100937F9093E10083FF03
:101160000FC01092E90091E09093EB001092EC0018
:1011700092E39093ED001092F80198E09093F000C4
:1011800082FF22C093E09093E9009091F2009923AE
:1011900019F09AE39093E8009091E901992341F0C6
:1011A0009091E90191509093E901911101C05D9AEC
:1011B0009091F701992341F09091F701915090930C
:1011C000F701911101C0289A84FF18C08091E200B4
:1011D0008E7E81608093E2008091E1008F7E80931B
:1011E000E1008091EA018E7E80618093EA019F9107
:1011F0008F910F900FBE0F901F90189580FFF7CF23
:101200008091E2008E7E80618093E2008091E10017
:101210008E7E8093E1008091EA018E7E8160E5CF31
:101220001F920F920FB60F921124CF92DF92EF927E
:10123000FF920F931F932F933F934F935F936F935F
:101240007F938F939F93AF93BF93EF93FF93CF932E
:10125000DF93CDB7DEB76C97DEBFCDBF1092E9004C
:101260008091E80083FF25C068E0CE0145960E948A
:101270007E0582EF8093E8008D8987FF39C09091C9
:10128000E80090FFFCCF982F907609F034C19E893A
:101290004F89588D2F89F88C911131C0803861F5B4
:1012A0008091E8018093F1001092F1008EEF80931D
:1012B000E8006C960FB6F894DEBF0FBECDBFDF918D
:1012C000CF91FF91EF91BF91AF919F918F917F91BE
:1012D0006F915F914F913F912F911F910F91FF90CF
:1012E000EF90DF90CF900F900FBE0F901F9018954A
:1012F0009EEF9093E800C7CF1092F100D5CF9130C8
:1013000059F48111D3CF4130510581F68091E80124
:101310008D7F8093E801CACF933049F48111C6CF05
:101320004130510519F68091E8018260F2CF953085
:1013300041F48091E80080FFFCCF20682093E30017
:10134000B5CF963009F0A9C00B8D1C8D22E010920C
:10135000E9001092E6011092E501F2122EC01092FF
:10136000E4011092E3010E944D051F8299E09983E8
:10137000FA8291E09E8390EA98879AEF998720916C
:10138000E5013091E601275F3F4F3C832B838D833E
:101390001092E9001092E6011092E5011093E40129
:1013A0000093E30149E050E0BE016F5F7F4F80E0B2
:1013B0000E9427050E944D0579CF1093E401009308
:1013C000E3010E946404DC0112960D911C91011549
:1013D000110509F451C1D801ED91FC910480F5810A
:1013E000E02DBE016B5E7F4FC8010995009709F0A3
:1013F0003EC1F80100851185EACFF3E0FF120EC06F
:101400008F89882309F440C0823061F440E860E1AC
:101410008DEC97E00E948C0B811148CF81E2809384
:10142000EB0047CF813029F440E86BE081EC97E096
:10143000F1CF833099F70E946404DC011296ED909D
:10144000FC908E010F5F1F4F6801E114F10479F0E9
:10145000D701ED91FC910680F781E02DB801C7011D
:101460000995080F111DF701E084F184EECFD80132
:101470001C92F60101900020E9F73197BF016C1929
:101480007D0940E0C601C6CF6BEA77E0FB014491DD
:1014900050E080E80E94270509CF973009F4BECFBD
:1014A000983021F481E08093F10000CF993009F069
:1014B000FDCE837009F0B2CFEDE0F1E081E031E0E4
:1014C00096E32191222371F08093E9003093EB00A1
:1014D000DF0111972C912093EC009093ED008F5F2A
:1014E000873079F78EE78093EA001092EA008F89BF
:1014F0008093F801DBCE8B8D9C8D1092E9001092C9
:10150000E6011092E5019093E4018093E301898D57
:10151000811192C08E899D89913A49F4813209F0F6
:101520007DCF47E050E064E071E080E0B3CF9132DE
:1015300009F074CF833269F48F89988DB0E0A0E010
:101540008093000190930101A0930201B0930301E5
:10155000ADCE803269F48091E80082FFFCCF67E075
:1015600084E091E00E947E058BEF8093E8009ECEA0
:10157000823209F09BCE8F8980930B01EEEFFFE75B
:10158000859194918B3F9C4D51F1E0E0F8E0809182
:10159000040190910501A0910601B0910701803BE3
:1015A0009440A105B105F1F480910B0180FD1AC0B2
:1015B000EE3F8AE0F80789F587E797E79183808314
:1015C000809160008093E70188E19BE00FB6F8947A
:1015D000A895809360000FBE9093600067CEEEEFF9
:1015E000FAE0D5CF808191818737974709F05ECEA9
:1015F000A895809160008861809360008091E701E8
:1016000080936000EE3F2AE0F20789F08091FE0AA5
:101610009091FF0A9183808349CE808191818737A1
:10162000980751F29093FF0A8093FE0AC5CF10925B
:10163000FF0A1092FE0A3ACE0E946404DC01129660
:101640000D911C910115110509F4E8CED801ED9119
:10165000FC910190F081E02DBE016B5E7F4FC801CF
:101660000995811123CEF80100851185EBCF18165D
:1016700019060CF41BCED2CEF1E0FF12BECE6FEAFB
:1016800077E004CF1F920F920FB60F9211242F9381
:101690003F938F939F93AF93BF938091DF0190917E
:1016A000E001A091E101B091E2013091DA0123E083
:1016B000230F2D3758F50196A11DB11D2093DA0196
:1016C0008093DF019093E001A093E101B093E201E8
:1016D0008091DB019091DC01A091DD01B091DE01F0
:1016E0000196A11DB11D8093DB019093DC01A093B5
:1016F000DD01B093DE01BF91AF919F918F913F913A
:101700002F910F900FBE0F901F90189526E8230F72
:101710000296A11DB11DD2CFEF92FF920F931F939E
:10172000CF93DF93F82E192FE62E042F81E0860F3A
:10173000880F0E94F90483E00E94F904CF2DD12F75
:10174000EC0EFD2EF11CCE15DF05B9F007FF13C01E
:10175000FE0184910E94F904182F80E00E94F90490
:10176000812321968111EFCFDF91CF911F910F91AE
:10177000FF90EF9008958881EDCF81E0F5CF0F9332
:101780001F93CF93DF938C0181E090E00E949D082E
:1017900080FF32C08AE090E00E949D089FEF980F82
:1017A0009E3F50F522E330E0D80150963C932E93B3
:1017B0001F9728E330E052963C932E935197CBE04D
:1017C000D0E0D801ED91FC910190F081E02D682FDF
:1017D000C8010995CE010E949D082196C131D1050D
:1017E00081F780E00E941A0488EE93E0DF91CF91A8
:1017F0001F910F910C949706DF91CF911F910F913C
:10180000089504970C94BF0BE9EFF5E01382128260
:1018100088EE93E0A0E0B0E084839583A683B7834D
:1018200087E191E0918380838FEF9FEF9587848795
:10183000E3E5F6E0138212821186128680E1838747
:1018400010861782158685E391E09183808383E477
:1018500091E095838483108A1786128A118A81E029
:10186000838B148A858B168AE9E4F6E01382128250
:1018700029E231E03183208397E0978380871186C6
:101880001582148216820895789484B5826084BD8E
:1018900084B5816084BD85B5826085BD85B5816074
:1018A00085BD80916E00816080936E0010928100F2
:1018B00080918100826080938100809181008160AD
:1018C000809381008091800081608093800080916E
:1018D000910082608093910080919100816080935B
:1018E0009100809190008160809390008091C10070
:1018F00084608093C1008091C10082608093C100A8
:101900008091C10081608093C1008091C30081609B
:101910008093C3008091C00082608093C00080915A
:10192000C20081608093C20080917A0084608093BD
:101930007A0080917A00826080937A0080917A00A8
:10194000816080937A0080917A00806880937A0029
:101950001092F8011092E8011092EA018091D700EC
:1019600081608093D70080EA8093D80089B5806138
:1019700089BD89B5826089BD09B400FEFDCF61E0F3
:1019800070E080E090E00E94DD058091D8008F7CBF
:1019900080618093D8008091E000807F8093E00098
:1019A0008091E1008E7E8093E1008DE08093E200E3
:1019B000559A209A81EC80937C0085B1806F85B91F
:1019C00084B1877E84B984B1876E84B95E9A5F984A
:1019D0008AB1806D8AB9769A6E9881B3806F81BB27
:1019E000899880B38D7080BB80E58CBD81E08DBD12
:1019F00085E090E00E9497065F9A85E090E00E9463
:101A000097065E985C98ECE5F7E089E697E024910C
:101A10002EBD00000DB407FEFDCF31968E179F0737
:101A2000B1F75C9A81E880936400809165008160E1
:101A30008093650080E00E941A040E949C0687FF44
:101A400015C05C9885EA8EBD00000DB407FEFDCF81
:101A50005C9A2E982F982D988091640080628093D4
:101A6000640081E083BF889513BEFCCF0E949C0672
:101A700082FF48C02D980E949C0684788438E1F447
:101A80000E94950688EC90E00E9497062F9882E0CD
:101A900090E00E94FD0E8F3F29F06FEF82E090E012
:101AA0000E94050F84EF91E00E9497062F9A0E94F2
:101AB0009C0684788438D9F30E949C068471843112
:101AC000E1F40E94950688EC90E00E9497062E981B
:101AD00082E090E00E94FD0E882329F060E082E021
:101AE00090E00E94050F84EF91E00E9497062E9AE5
:101AF0000E949C0684718431D9F388EC90E00E94A6
:101B00009706B4CF0E94950682E090E00E949D085F
:101B1000882309F451C03E9A3F9A81E090E00E94E8
:101B20009D08282F2470722E81FF11C021112E983C
:101B3000C0EFDFEF08E010E06CE6E62EF12C0E942B
:101B40009C0686FF3CC02E9A2F9A0E94950682E33F
:101B500090E00E9497060E949C068111F8CF81E2D6
:101B600080935E065524539489EF682E81E0782E89
:101B700090E0892E90E0992E442443948FB7F894F6
:101B80004091DF015091E0016091E1017091E2012B
:101B90008FBF80915F06942F981B809160068823E9
:101BA00009F4A1C09093610610926006811491041B
:101BB00029F30E940000E2CF3E983F98AECF7720F5
:101BC00029F0C430D10511F42E9A2F9881E00E949B
:101BD0001A049E01D7FF04C0222733272C1B3D0B7C
:101BE00027703327CE01D7FD079653E0959587954B
:101BF0005A95E1F7D7FF05C00197A801421B530B87
:101C00009A01BC017695762F662777956795675080
:101C10007E4FB0E0A0E02801421A530A8F3F5FEFE9
:101C200095070CF43CC048E550E0FD01EC5FF84F2F
:101C30005F014B01F0E88F0E911C8F3F9807A1F0D8
:101C4000F501E41BF50BE4916701C41AD50AC60E31
:101C5000D71EF0E01F01022E01C0220C0A94EAF701
:101C6000F60160802628208221153105A9F0F501B2
:101C7000E41BF50BE4916701C41AD50AC80CD91C02
:101C8000F0E01F01042C02C0359427940A94E2F777
:101C9000F6016080262820824150510971F6019694
:101CA000A85ABF4F60587F4FA03BB10509F0B6CF8F
:101CB00080E00E941A048FE090E00E94970621962F
:101CC000C931D10509F03BCF772011F02F9A2D981B
:101CD00080E991E00E9497060E94950683E596E0D0
:101CE0000E94BF0B34CF20915E06921740F49F5F95
:101CF000921708F05BCF53BE889513BE57CF409222
:101D0000600640935F0620915A0630915B062F5F74
:101D10003F4F30935B0620935A06F30181118FEFFA
:101D2000002481938193819381930394D1F710923E
:101D30006506109264061092630610926206109275
:101D40004D061092520610924E0610924F0685E4F0
:101D500091E00E94900885E691E00E94900886E854
:101D600091E00E94900883EA91E00E9490088BEA3B
:101D700091E00E9490088BEC91E00E949008809185
:101D80005A0690915B068F719927409790F50091C4
:101D90004E06002E000C110BC0914D060C2E000CAF
:101DA000DD0B5E01F3E0AF0EB11C680126E0C20E50
:101DB000D11CAC16BD06E9F0780117FF02C0F12C6A
:101DC000E12CC60141E4C416D10414F080E490E093
:101DD000E816F90664F4C038D10528F441E0B701EB
:101DE000CE010E94A4065FEFE51AF50AEACF21961C
:101DF000E0CF80E00E941A04D9CEF999FECF92BDBF
:101E000081BDF89A992780B50895262FF999FECFBC
:101E10001FBA92BD81BD20BD0FB6F894FA9AF99A07
:101E20000FBE01960895EE0FFF1F0590F491E02D6F
:101E3000099481E090E0F8940C941E0FF894FFCF81
:101E4000FFFFFFFF00E100000000000000C18081F3
:101E5000000000000000007804100699048E04DFE2
:101E6000049D04BB0400000000C0078B058D088C96
:101E70000800000000BC068B058D088C08BF0BFC19
:101E8000FF0000010C5641524941424C4520574940
:101E900044544820464F4E5420283620484947484D
:101EA000293A0A0A00202122232425262728292A24
:101EB0002B2D2E2F303132333435363738393A3BEB
:101EC0003C3D3E3F0A004041424344454647484965
:101ED0004A4B4C4D4E4F50515253545556575859EA
:101EE0005A0A005B5C5D5E5F0A0A00544845205157
:101EF0005549434B2042524F574E20464F58204A97
:101F0000554D5053204F5645520A00544845204CD9
:0A1F1000415A5920444F472E0000AB
:00000001FF
